export default [
   {
      "hash": "3642216be898b672253033a1466c3a5f776a4f7842c21180dd7e56a143bd0b2d",
      "fee": 1133,
      "rate": 5931,
      "mtime": 1639698462,
      "height": 667749,
      "block": "0000000000000000581593204ae81a934a95aae94d1408f786abd59e7cab6c93",
      "time": 1609947472,
      "index": 6,
      "version": 2,
      "inputs": [
        {
          "prevout": {
            "hash": "6809cc8f0d715ccf5c7eb4c57242a87d1c53b2f9dc28f1c64ea54039c0561e5e",
            "index": 2
          },
          "script": "47304402200b05e1192e3ee71bc15a3557be49eb4dee55b69c113d11ba04e7a0081927224e02202d466b18084091729cecef517a05409db22e4c0aa7ebcf7451eb76c8c10ee295412102a06bb380cf180d703f6f80796a13555aefff817d1f6f842f1e5c555b15f0fa70",
          "sequence": 4294967295,
          "coin": {
            "version": 2,
            "height": 667749,
            "value": 6044569,
            "script": "76a914ba8257db65f40359989c7b894c5e88ed7b6344f688ac",
            "address": "ecash:qzagy47mvh6qxkvcn3acjnz73rkhkc6y7ccxkrr6zd",
            "coinbase": false,
            "hash": "6809cc8f0d715ccf5c7eb4c57242a87d1c53b2f9dc28f1c64ea54039c0561e5e",
            "index": 2
          }
        }
      ],
      "outputs": [
        {
          "value": 6043436,
          "script": "76a914f1f529e136738f1d93c5dc4be9306913a7f1855e88ac",
          "address": "ecash:qrcl220pxeec78vnchwyh6fsdyf60uv9tca7668slm"
        }
      ],
      "locktime": 0,
      "hex": "02000000015e1e56c03940a54ec6f128dcf9b2531c7da84272c5b47e5ccf5c710d8fcc0968020000006a47304402200b05e1192e3ee71bc15a3557be49eb4dee55b69c113d11ba04e7a0081927224e02202d466b18084091729cecef517a05409db22e4c0aa7ebcf7451eb76c8c10ee295412102a06bb380cf180d703f6f80796a13555aefff817d1f6f842f1e5c555b15f0fa70ffffffff012c375c00000000001976a914f1f529e136738f1d93c5dc4be9306913a7f1855e88ac00000000",
      "confirmations": 50347
   },
   {
      "hash": "535201eddeb2366f8e1477b653c6cf766680a1bb33eccd5587dcb240e08c7268",
      "fee": 2354,
      "rate": 4904,
      "mtime": 1639699531,
      "height": 666987,
      "block": "000000000000000031faf653d90b4b3716e9057b6229c512d08803bd007c5e9c",
      "time": 1609447983,
      "index": 44,
      "version": 2,
      "inputs": [
        {
          "prevout": {
            "hash": "fb8a741c55971abc52879ca5ea26586ecda6cecd80f74492483c922bc2b02dc0",
            "index": 0
          },
          "script": "473044022007922a5925f25f8cf161536fa431a99eb1fb0bab7968ee9a37c5ecf18baf918c0220469a596cf86c9c1d435cca82adfd696032a7fcffb6790f394e3b19e1fed3bc3e412102fe5308d77bcce825068a9e46adc6f032dbbe39167a7b6d05ac563ac71d8b186e",
          "sequence": 4294967295,
          "coin": {
            "version": 2,
            "height": 666975,
            "value": 6053269,
            "script": "76a9142be0e0c999e7e77a443ea726f82c441912fca92b88ac",
            "address": "ecash:qq47pcxfn8n7w7jy86njd7pvgsv39l9f9vkjud0qr4",
            "coinbase": false,
            "hash": "fb8a741c55971abc52879ca5ea26586ecda6cecd80f74492483c922bc2b02dc0",
            "index": 0
          }
        },
        {
          "prevout": {
            "hash": "17fd0db8beacb283bbeca6b829ae713cd3a1721dd7479c4b9bf78f475859b0d5",
            "index": 1
          },
          "script": "483045022100f23b12d0039705e1055dc23f077f454c7671637dc7371987234f663c070a0ca8022017e24e852798dc81073bd05d54fd5227b084f6c43d5e5271bbd3af869063096a412103c4a69fd90c8b196683216cffd2943a7b13b0db0812e44a4ff156ac7e03fc4ed7",
          "sequence": 4294967295,
          "coin": {
            "version": 2,
            "height": 666975,
            "value": 546,
            "script": "76a914960c9ed561f1699f0c49974d50b3bb7cdc11862588ac",
            "address": "ecash:qztqe8k4v8ckn8cvfxt5659nhd7dcyvxy5v6zglsrs",
            "coinbase": false,
            "hash": "17fd0db8beacb283bbeca6b829ae713cd3a1721dd7479c4b9bf78f475859b0d5",
            "index": 1,
            "slp": {
              "vout": 1,
              "tokenId": "bd1acc4c986de57af8d6d2a64aecad8c30ee80f37ae9d066d758923732ddc9ba",
              "value": "6005000001",
              "type": "SEND"
            }
          }
        }
      ],
      "outputs": [
        {
          "value": 0,
          "script": "6a04534c500001010453454e4420bd1acc4c986de57af8d6d2a64aecad8c30ee80f37ae9d066d758923732ddc9ba0800000000003d0900080000000165affe41",
          "address": null
        },
        {
          "value": 546,
          "script": "76a91458549b5b93428fac88e36617456cd99a411bd0eb88ac",
          "address": "ecash:qpv9fx6mjdpgltygudnpw3tvmxdyzx7savwvrqe2gt",
          "slp": {
            "vout": 1,
            "tokenId": "bd1acc4c986de57af8d6d2a64aecad8c30ee80f37ae9d066d758923732ddc9ba",
            "value": "4000000",
            "type": "SEND"
          }
        },
        {
          "value": 546,
          "script": "76a914960c9ed561f1699f0c49974d50b3bb7cdc11862588ac",
          "address": "ecash:qztqe8k4v8ckn8cvfxt5659nhd7dcyvxy5v6zglsrs",
          "slp": {
            "vout": 2,
            "tokenId": "bd1acc4c986de57af8d6d2a64aecad8c30ee80f37ae9d066d758923732ddc9ba",
            "value": "6001000001",
            "type": "SEND"
          }
        },
        {
          "value": 6050369,
          "script": "76a9142be0e0c999e7e77a443ea726f82c441912fca92b88ac",
          "address": "ecash:qq47pcxfn8n7w7jy86njd7pvgsv39l9f9vkjud0qr4"
        }
      ],
      "locktime": 0,
      "hex": "0200000002c02db0c22b923c489244f780cdcea6cd6e5826eaa59c8752bc1a97551c748afb000000006a473044022007922a5925f25f8cf161536fa431a99eb1fb0bab7968ee9a37c5ecf18baf918c0220469a596cf86c9c1d435cca82adfd696032a7fcffb6790f394e3b19e1fed3bc3e412102fe5308d77bcce825068a9e46adc6f032dbbe39167a7b6d05ac563ac71d8b186effffffffd5b05958478ff79b4b9c47d71d72a1d33c71ae29b8a6ecbb83b2acbeb80dfd17010000006b483045022100f23b12d0039705e1055dc23f077f454c7671637dc7371987234f663c070a0ca8022017e24e852798dc81073bd05d54fd5227b084f6c43d5e5271bbd3af869063096a412103c4a69fd90c8b196683216cffd2943a7b13b0db0812e44a4ff156ac7e03fc4ed7ffffffff040000000000000000406a04534c500001010453454e4420bd1acc4c986de57af8d6d2a64aecad8c30ee80f37ae9d066d758923732ddc9ba0800000000003d0900080000000165affe4122020000000000001976a91458549b5b93428fac88e36617456cd99a411bd0eb88ac22020000000000001976a914960c9ed561f1699f0c49974d50b3bb7cdc11862588ac41525c00000000001976a9142be0e0c999e7e77a443ea726f82c441912fca92b88ac00000000",
      "slpToken": {
        "tokenId": "bd1acc4c986de57af8d6d2a64aecad8c30ee80f37ae9d066d758923732ddc9ba",
        "ticker": "TBS",
        "name": "TestBits",
        "uri": "https://thecryptoguy.com/",
        "hash": "",
        "decimals": 9
      },
      "confirmations": 51111
    },
    {
        "hash":"b980b35b794ad73d8aae312385e82d9be8086e7b743e1c6a468db8db8ac74bd8",
        "mtime":1639559350,
        "version":2,
        "inputs":[
           {
              "prevout":{
                 "hash":"ec9c20c2c5cd5aa4c9261a9f97e68734b175962c4b3d9edc996dd415dd03c2e7",
                 "index":0
              },
              "script":"473044022075cb93e60ffb792b2715d96f3d31033e8f385bb9bfeadf99f7b1055d749a33cc022028292ee8ffaed64cbc6f9b680db36e031250672a6b0c5cfd23f9a61977d52ed7412102c237f49dd4c812f27b09d69d4c8a4da12744fda8ad63ce151fed2a3f41fd8795",
              "sequence":4294967295,
              "address":"ecash:qpmytrdsakt0axrrlswvaj069nat3p9s7cjctmjasj"
           },
           {
              "prevout":{
                 "hash":"618d0dd8c0c5fa5a34c6515c865dd72bb76f8311cd6ee9aef153bab20dabc0e6",
                 "index":1
              },
              "script":"47304402203ea0558cd917eb8f6c286e79ffcc5dd1f5accb66c2e5836628d6be6f9d03ca260220120a6da92b6f44bdfcd3ef7b08263d3f73d99ff4b1f83b8f998ff1355f3f0d2e412102c237f49dd4c812f27b09d69d4c8a4da12744fda8ad63ce151fed2a3f41fd8795",
              "sequence":4294967295,
              "address":"ecash:qpmytrdsakt0axrrlswvaj069nat3p9s7cjctmjasj"
           }
        ],
        "outputs":[
           {
              "value":0,
              "script":"6a04534c500001010453454e442050d8292c6255cda7afc6c8566fed3cf42a2794e9619740fe8f4c95431271410e080000000000000003080000000000000061",
              "address":null
           },
           {
              "value":546,
              "script":"76a914d4fa9121bcd065dd93e58831569cf51ef5a74f6188ac",
              "address":"ecash:qr204yfphngxthvnukyrz45u7500tf60vyqspva5a6"
           },
           {
              "value":546,
              "script":"76a91476458db0ed96fe9863fc1ccec9fa2cfab884b0f688ac",
              "address":"ecash:qpmytrdsakt0axrrlswvaj069nat3p9s7cjctmjasj"
           },
           {
              "value":499998974,
              "script":"76a91476458db0ed96fe9863fc1ccec9fa2cfab884b0f688ac",
              "address":"ecash:qpmytrdsakt0axrrlswvaj069nat3p9s7cjctmjasj"
           }
        ],
        "locktime":0,
        "hex":"0200000002e7c203dd15d46d99dc9e3d4b2c9675b13487e6979f1a26c9a45acdc5c2209cec000000006a473044022075cb93e60ffb792b2715d96f3d31033e8f385bb9bfeadf99f7b1055d749a33cc022028292ee8ffaed64cbc6f9b680db36e031250672a6b0c5cfd23f9a61977d52ed7412102c237f49dd4c812f27b09d69d4c8a4da12744fda8ad63ce151fed2a3f41fd8795ffffffffe6c0ab0db2ba53f1aee96ecd11836fb72bd75d865c51c6345afac5c0d80d8d61010000006a47304402203ea0558cd917eb8f6c286e79ffcc5dd1f5accb66c2e5836628d6be6f9d03ca260220120a6da92b6f44bdfcd3ef7b08263d3f73d99ff4b1f83b8f998ff1355f3f0d2e412102c237f49dd4c812f27b09d69d4c8a4da12744fda8ad63ce151fed2a3f41fd8795ffffffff040000000000000000406a04534c500001010453454e442050d8292c6255cda7afc6c8566fed3cf42a2794e9619740fe8f4c95431271410e08000000000000000308000000000000006122020000000000001976a914d4fa9121bcd065dd93e58831569cf51ef5a74f6188ac22020000000000001976a91476458db0ed96fe9863fc1ccec9fa2cfab884b0f688acfe60cd1d000000001976a91476458db0ed96fe9863fc1ccec9fa2cfab884b0f688ac00000000"
    },
    {
      "hash": "a0058a66a161c4b72bd39da75baaf58f59dda6208cfa425428b7934b12ba4bca",
      "fee": 2354,
      "rate": 4914,
      "mtime": 1639699531,
      "height": 667750,
      "block": "00000000000000007c9a79774c6daf5c8e3e890e7917ff1c1d7e89e386eccb19",
      "time": 1609949058,
      "index": 57,
      "version": 2,
      "inputs": [
        {
          "prevout": {
            "hash": "eb1b66b2edcc6cf5619f75bf66aef23bc62eead0f267ad9db36bc8dcd1c52e67",
            "index": 0
          },
          "script": "473044022012e4270d06a3b84c70a8693342f2f60da80b76df1e056462a858700143b9773302202e7b43a44d9e6620a5a0d46ac2650694582e7affdd701ba8c343825907e935f541210361c15c24d617d75b51bd057e418020b3e7a07d91a41ddd0365bf168b418f79f6",
          "sequence": 4294967295,
          "coin": {
            "version": 2,
            "height": 667750,
            "value": 104987160,
            "script": "76a914f1f529e136738f1d93c5dc4be9306913a7f1855e88ac",
            "address": "ecash:qrcl220pxeec78vnchwyh6fsdyf60uv9tca7668slm",
            "coinbase": false,
            "hash": "eb1b66b2edcc6cf5619f75bf66aef23bc62eead0f267ad9db36bc8dcd1c52e67",
            "index": 0
          }
        },
        {
          "prevout": {
            "hash": "68cf511d628b1165d50a463e298d50228171c35f2965529ee072a44e8550deff",
            "index": 1
          },
          "script": "47304402205be45d0427144929242ca910feb1e5c8c7a24e1475fd8a1ec60708ed0094a57202201d411430ddccd51fc467d912982ed499cadba6699509b17ad7a099bea537056f412103bab8028d3c7d442a77b66266896e1b38dda2caf47257aa2e6189f430c3946487",
          "sequence": 4294967295,
          "coin": {
            "version": 2,
            "height": 661162,
            "value": 546,
            "script": "76a91419884c453167cf3011a3363b4b1ebd926bde059f88ac",
            "address": "ecash:qqvcsnz9x9nu7vq35vmrkjc7hkfxhhs9nu4cpfq4l6",
            "coinbase": false,
            "hash": "68cf511d628b1165d50a463e298d50228171c35f2965529ee072a44e8550deff",
            "index": 1,
            "slp": {
              "vout": 1,
              "tokenId": "bfddfcfc9fb9a8d61ed74fa94b5e32ccc03305797eea461658303df5805578ef",
              "value": "3",
              "type": "SEND"
            }
          }
        }
      ],
      "outputs": [
        {
          "value": 0,
          "script": "6a04534c500001010453454e4420bfddfcfc9fb9a8d61ed74fa94b5e32ccc03305797eea461658303df5805578ef080000000000000001080000000000000002",
          "address": null
        },
        {
          "value": 546,
          "script": "76a914960c9ed561f1699f0c49974d50b3bb7cdc11862588ac",
          "address": "ecash:qztqe8k4v8ckn8cvfxt5659nhd7dcyvxy5v6zglsrs",
          "slp": {
            "vout": 1,
            "tokenId": "bfddfcfc9fb9a8d61ed74fa94b5e32ccc03305797eea461658303df5805578ef",
            "value": "1",
            "type": "SEND"
          }
        },
        {
          "value": 546,
          "script": "76a91419884c453167cf3011a3363b4b1ebd926bde059f88ac",
          "address": "ecash:qqvcsnz9x9nu7vq35vmrkjc7hkfxhhs9nu4cpfq4l6",
          "slp": {
            "vout": 2,
            "tokenId": "bfddfcfc9fb9a8d61ed74fa94b5e32ccc03305797eea461658303df5805578ef",
            "value": "2",
            "type": "SEND"
          }
        },
        {
          "value": 104984260,
          "script": "76a914f1f529e136738f1d93c5dc4be9306913a7f1855e88ac",
          "address": "ecash:qrcl220pxeec78vnchwyh6fsdyf60uv9tca7668slm"
        }
      ],
      "locktime": 0,
      "hex": "0200000002672ec5d1dcc86bb39dad67f2d0ea2ec63bf2ae66bf759f61f56cccedb2661beb000000006a473044022012e4270d06a3b84c70a8693342f2f60da80b76df1e056462a858700143b9773302202e7b43a44d9e6620a5a0d46ac2650694582e7affdd701ba8c343825907e935f541210361c15c24d617d75b51bd057e418020b3e7a07d91a41ddd0365bf168b418f79f6ffffffffffde50854ea472e09e5265295fc3718122508d293e460ad565118b621d51cf68010000006a47304402205be45d0427144929242ca910feb1e5c8c7a24e1475fd8a1ec60708ed0094a57202201d411430ddccd51fc467d912982ed499cadba6699509b17ad7a099bea537056f412103bab8028d3c7d442a77b66266896e1b38dda2caf47257aa2e6189f430c3946487ffffffff040000000000000000406a04534c500001010453454e4420bfddfcfc9fb9a8d61ed74fa94b5e32ccc03305797eea461658303df5805578ef08000000000000000108000000000000000222020000000000001976a914960c9ed561f1699f0c49974d50b3bb7cdc11862588ac22020000000000001976a91419884c453167cf3011a3363b4b1ebd926bde059f88acc4ee4106000000001976a914f1f529e136738f1d93c5dc4be9306913a7f1855e88ac00000000",
      "slpToken": {
        "tokenId": "bfddfcfc9fb9a8d61ed74fa94b5e32ccc03305797eea461658303df5805578ef",
        "ticker": "Sending Token",
        "name": "Sending Token",
        "uri": "developer.bitcoin.com",
        "hash": "",
        "decimals": 9
      },
      "confirmations": 50348
    },
    {
        "hash":"f90631b48521a4147dd9dd7091ce936eddc0c3e6221ec87fa4fabacc453a0b95",
        "mtime":1639559515,
        "version":2,
        "inputs":[
           {
              "prevout":{
                 "hash":"db464f77ac97deabc28df07a7e4a2e261c854a8ec4dc959b89b10531966f6cbf",
                 "index":0
              },
              "script":"473044022065622a7aa065f56abe84f3589c983a768e3ef5d72c9352991d6b584a2a16dcb802200c1c0065106207715a024624ed951e851d4f742c55a704e9531bebd2ef84fc1441210352cbc218d193ceaf4fb38a772856380173db7a908905e3190841b3174c7ae22d",
              "sequence":4294967295,
              "address":"ecash:qphpmfj0qn7znklqhrfn5dq7qh36l3vxav9up3h67g"
           },
           {
              "prevout":{
                 "hash":"acbb66f826211f40b89e84d9bd2143dfb541d67e1e3c664b17ccd3ba66327a9e",
                 "index":1
              },
              "script":"483045022100b475cf7d1eaf37641d2107f13be0ef9acbd17b252ed3f9ae349edfdcd6a97cf402202bf2852dfa905e6d50c96a622d2838408ceb979245a4342d5096acc93813580441210352cbc218d193ceaf4fb38a772856380173db7a908905e3190841b3174c7ae22d",
              "sequence":4294967295,
              "address":"ecash:qphpmfj0qn7znklqhrfn5dq7qh36l3vxav9up3h67g"
           }
        ],
        "outputs":[
           {
              "value":0,
              "script":"6a04534c500001010453454e4420bfddfcfc9fb9a8d61ed74fa94b5e32ccc03305797eea461658303df5805578ef080000000000000001",
              "address":null
           },
           {
              "value":546,
              "script":"76a91476458db0ed96fe9863fc1ccec9fa2cfab884b0f688ac",
              "address":"ecash:qpmytrdsakt0axrrlswvaj069nat3p9s7cjctmjasj"
           },
           {
              "value":999997101,
              "script":"76a9146e1da64f04fc29dbe0b8d33a341e05e3afc586eb88ac",
              "address":"ecash:qphpmfj0qn7znklqhrfn5dq7qh36l3vxav9up3h67g"
           }
        ],
        "locktime":0,
        "hex":"0200000002bf6c6f963105b1899b95dcc48e4a851c262e4a7e7af08dc2abde97ac774f46db000000006a473044022065622a7aa065f56abe84f3589c983a768e3ef5d72c9352991d6b584a2a16dcb802200c1c0065106207715a024624ed951e851d4f742c55a704e9531bebd2ef84fc1441210352cbc218d193ceaf4fb38a772856380173db7a908905e3190841b3174c7ae22dffffffff9e7a3266bad3cc174b663c1e7ed641b5df4321bdd9849eb8401f2126f866bbac010000006b483045022100b475cf7d1eaf37641d2107f13be0ef9acbd17b252ed3f9ae349edfdcd6a97cf402202bf2852dfa905e6d50c96a622d2838408ceb979245a4342d5096acc93813580441210352cbc218d193ceaf4fb38a772856380173db7a908905e3190841b3174c7ae22dffffffff030000000000000000376a04534c500001010453454e4420bfddfcfc9fb9a8d61ed74fa94b5e32ccc03305797eea461658303df5805578ef08000000000000000122020000000000001976a91476458db0ed96fe9863fc1ccec9fa2cfab884b0f688acadbe9a3b000000001976a9146e1da64f04fc29dbe0b8d33a341e05e3afc586eb88ac00000000"
    },
    {
      "hash": "fb8a741c55971abc52879ca5ea26586ecda6cecd80f74492483c922bc2b02dc0",
      "fee": 1874,
      "rate": 5024,
      "mtime": 1639699188,
      "height": 666975,
      "block": "000000000000000055aafe70ef77e623c3c0229db452e1ad66c107b102a676a7",
      "time": 1609438936,
      "index": 118,
      "version": 2,
      "inputs": [
        {
          "prevout": {
            "hash": "8ed5da542eaa80a2d83ad24e0edd39c17e52693025d81d47a2a72af2b7219df4",
            "index": 0
          },
          "script": "483045022100e6366e6fb7dad900463d669ce42dbf7bf1f036ba38657104772f94914b7c819b022016782409c9ca50c44b7d85e4b7375fa92ffb1d017f97832a726f5c7688884ce24121031d730f088e406e924b6fd28f2d120a260a66a09dce3e31eb4b71dff4265240f5",
          "sequence": 4294967295,
          "coin": {
            "version": 2,
            "height": 665658,
            "value": 6031363,
            "script": "76a914438a162355ef683062a7fde9d08dd720397aaee888ac",
            "address": "ecash:qppc593r2hhksvrz5l77n5yd6usrj74waq2ddsngw7",
            "coinbase": false,
            "hash": "8ed5da542eaa80a2d83ad24e0edd39c17e52693025d81d47a2a72af2b7219df4",
            "index": 0
          }
        },
        {
          "prevout": {
            "hash": "4368222efc561352db4fcb57997bba298598198b26002e9f749ac5b735bd548b",
            "index": 0
          },
          "script": "473044022038a879004c84a78b6ba5fc0b98f295f4cba586f1458f120502aee39a000d0a6602200bdce3c8f3c56ba2419a360cf5d6c1ef45f2862aaf2472c4d4c830be1534527c4121031d730f088e406e924b6fd28f2d120a260a66a09dce3e31eb4b71dff4265240f5",
          "sequence": 4294967295,
          "coin": {
            "version": 2,
            "height": 666402,
            "value": 299043,
            "script": "76a914438a162355ef683062a7fde9d08dd720397aaee888ac",
            "address": "ecash:qppc593r2hhksvrz5l77n5yd6usrj74waq2ddsngw7",
            "coinbase": false,
            "hash": "4368222efc561352db4fcb57997bba298598198b26002e9f749ac5b735bd548b",
            "index": 0
          }
        }
      ],
      "outputs": [
        {
          "value": 6053269,
          "script": "76a9142be0e0c999e7e77a443ea726f82c441912fca92b88ac",
          "address": "ecash:qq47pcxfn8n7w7jy86njd7pvgsv39l9f9vkjud0qr4"
        },
        {
          "value": 275263,
          "script": "76a914438a162355ef683062a7fde9d08dd720397aaee888ac",
          "address": "ecash:qppc593r2hhksvrz5l77n5yd6usrj74waq2ddsngw7"
        }
      ],
      "locktime": 0,
      "hex": "0200000002f49d21b7f22aa7a2471dd8253069527ec139dd0e4ed23ad8a280aa2e54dad58e000000006b483045022100e6366e6fb7dad900463d669ce42dbf7bf1f036ba38657104772f94914b7c819b022016782409c9ca50c44b7d85e4b7375fa92ffb1d017f97832a726f5c7688884ce24121031d730f088e406e924b6fd28f2d120a260a66a09dce3e31eb4b71dff4265240f5ffffffff8b54bd35b7c59a749f2e00268b19988529ba7b9957cb4fdb521356fc2e226843000000006a473044022038a879004c84a78b6ba5fc0b98f295f4cba586f1458f120502aee39a000d0a6602200bdce3c8f3c56ba2419a360cf5d6c1ef45f2862aaf2472c4d4c830be1534527c4121031d730f088e406e924b6fd28f2d120a260a66a09dce3e31eb4b71dff4265240f5ffffffff02955d5c00000000001976a9142be0e0c999e7e77a443ea726f82c441912fca92b88ac3f330400000000001976a914438a162355ef683062a7fde9d08dd720397aaee888ac00000000",
      "confirmations": 51123
    },
    {
        "hash":"b96da810b15deb312ad4508a165033ca8ffa282f88e5b7b0e79be09a0b0424f9",
        "mtime":1639559690,
        "version":2,
        "inputs":[
           {
              "prevout":{
                 "hash":"9ad75af97f0617a3729c2bd31bf7c4b380230e661cc921a3c6be0febc75a3e49",
                 "index":1
              },
              "script":"483045022100d59e6fad4d1d57796f229a7d4aa3b01fc3241132dae9bc406c66fa33d7aef21c022036a5f432d6d99f65848ac12c00bde2b5ba7e63a9f9a74349d9ab8ec39db26f8e412102c237f49dd4c812f27b09d69d4c8a4da12744fda8ad63ce151fed2a3f41fd8795",
              "sequence":4294967295,
              "address":"ecash:qpmytrdsakt0axrrlswvaj069nat3p9s7cjctmjasj"
           }
        ],
        "outputs":[
           {
              "value":12345000,
              "script":"76a9146e1da64f04fc29dbe0b8d33a341e05e3afc586eb88ac",
              "address":"ecash:qphpmfj0qn7znklqhrfn5dq7qh36l3vxav9up3h67g"
           },
           {
              "value":62455003,
              "script":"76a91476458db0ed96fe9863fc1ccec9fa2cfab884b0f688ac",
              "address":"ecash:qpmytrdsakt0axrrlswvaj069nat3p9s7cjctmjasj"
           }
        ],
        "locktime":0,
        "hex":"0200000001493e5ac7eb0fbec6a321c91c660e2380b3c4f71bd32b9c72a317067ff95ad79a010000006b483045022100d59e6fad4d1d57796f229a7d4aa3b01fc3241132dae9bc406c66fa33d7aef21c022036a5f432d6d99f65848ac12c00bde2b5ba7e63a9f9a74349d9ab8ec39db26f8e412102c237f49dd4c812f27b09d69d4c8a4da12744fda8ad63ce151fed2a3f41fd8795ffffffff02a85ebc00000000001976a9146e1da64f04fc29dbe0b8d33a341e05e3afc586eb88acdbfcb803000000001976a91476458db0ed96fe9863fc1ccec9fa2cfab884b0f688ac00000000"
    },
    {
        "hash":"db464f77ac97deabc28df07a7e4a2e261c854a8ec4dc959b89b10531966f6cbf",
        "mtime":1639559747,
        "version":2,
        "inputs":[
           {
              "prevout":{
                 "hash":"1452267e57429edcfdcb1184b24becea6ddf8f8a4f8e130dad6248545d9f8e75",
                 "index":1
              },
              "script":"4730440220184921bfce634a57b5220f06b11b64c0cb7e67ecd9c634335e3e933e35a7a969022038b2074e1d75aa4f6945d150bae5b8a1d426f4284da2b96336fa0fc741eb6de7412102c237f49dd4c812f27b09d69d4c8a4da12744fda8ad63ce151fed2a3f41fd8795",
              "sequence":4294967295,
              "address":"ecash:qpmytrdsakt0axrrlswvaj069nat3p9s7cjctmjasj"
           }
        ],
        "outputs":[
           {
              "value":1000000001,
              "script":"76a9146e1da64f04fc29dbe0b8d33a341e05e3afc586eb88ac",
              "address":"ecash:qphpmfj0qn7znklqhrfn5dq7qh36l3vxav9up3h67g"
           },
           {
              "value":288306070,
              "script":"76a91476458db0ed96fe9863fc1ccec9fa2cfab884b0f688ac",
              "address":"ecash:qpmytrdsakt0axrrlswvaj069nat3p9s7cjctmjasj"
           }
        ],
        "locktime":0,
        "hex":"0200000001758e9f5d544862ad0d138e4f8a8fdf6deaec4bb28411cbfddc9e42577e265214010000006a4730440220184921bfce634a57b5220f06b11b64c0cb7e67ecd9c634335e3e933e35a7a969022038b2074e1d75aa4f6945d150bae5b8a1d426f4284da2b96336fa0fc741eb6de7412102c237f49dd4c812f27b09d69d4c8a4da12744fda8ad63ce151fed2a3f41fd8795ffffffff0201ca9a3b000000001976a9146e1da64f04fc29dbe0b8d33a341e05e3afc586eb88ac96332f11000000001976a91476458db0ed96fe9863fc1ccec9fa2cfab884b0f688ac00000000"
    },
    {
        "hash":"e32c20137e590f253b8d198608f7fffd428fc0bd7a9a0675bb6af091d1cb2ea4",
        "mtime":1639559801,
        "version":2,
        "inputs":[
           {
              "prevout":{
                 "hash":"f63e890423b3bffa6e01be2dcb4942940c2e8a1985926411558a22d1b5dd0e29",
                 "index":1
              },
              "script":"483045022100c7f51ff0888c182a1a60c08904d8116c9d2e31cb7d2fd5b63c2bf9fd7b246fc102202ee786d2052448621c4a04d18d13c83ac5ee27008dd079e8ba954f8197ff3c6c412102c237f49dd4c812f27b09d69d4c8a4da12744fda8ad63ce151fed2a3f41fd8795",
              "sequence":4294967295,
              "address":"ecash:qpmytrdsakt0axrrlswvaj069nat3p9s7cjctmjasj"
           },
           {
              "prevout":{
                 "hash":"42d39fbe068a40fe691f987b22fdf04b80f94d71d2fec20a58125e7b1a06d2a9",
                 "index":0
              },
              "script":"47304402201bbfcd0c120ace9b8c7a6f5e77b61236bb1128e2a757f85ba80101885e9c1212022046fed4006dcd6a236034dede77c566acf74824d14b3ee3da884e9bd93884ff93412102c237f49dd4c812f27b09d69d4c8a4da12744fda8ad63ce151fed2a3f41fd8795",
              "sequence":4294967295,
              "address":"ecash:qpmytrdsakt0axrrlswvaj069nat3p9s7cjctmjasj"
           }
        ],
        "outputs":[
           {
              "value":187259940,
              "script":"76a9146e1da64f04fc29dbe0b8d33a341e05e3afc586eb88ac",
              "address":"ecash:qphpmfj0qn7znklqhrfn5dq7qh36l3vxav9up3h67g"
           },
           {
              "value":149237053,
              "script":"76a91476458db0ed96fe9863fc1ccec9fa2cfab884b0f688ac",
              "address":"ecash:qpmytrdsakt0axrrlswvaj069nat3p9s7cjctmjasj"
           }
        ],
        "locktime":0,
        "hex":"0200000002290eddb5d1228a5511649285198a2e0c944249cb2dbe016efabfb32304893ef6010000006b483045022100c7f51ff0888c182a1a60c08904d8116c9d2e31cb7d2fd5b63c2bf9fd7b246fc102202ee786d2052448621c4a04d18d13c83ac5ee27008dd079e8ba954f8197ff3c6c412102c237f49dd4c812f27b09d69d4c8a4da12744fda8ad63ce151fed2a3f41fd8795ffffffffa9d2061a7b5e12580ac2fed2714df9804bf0fd227b981f69fe408a06be9fd342000000006a47304402201bbfcd0c120ace9b8c7a6f5e77b61236bb1128e2a757f85ba80101885e9c1212022046fed4006dcd6a236034dede77c566acf74824d14b3ee3da884e9bd93884ff93412102c237f49dd4c812f27b09d69d4c8a4da12744fda8ad63ce151fed2a3f41fd8795ffffffff02245c290b000000001976a9146e1da64f04fc29dbe0b8d33a341e05e3afc586eb88ac3d2de508000000001976a91476458db0ed96fe9863fc1ccec9fa2cfab884b0f688ac00000000"
    },
    {
        txid: 'ec9c20c2c5cd5aa4c9261a9f97e68734b175962c4b3d9edc996dd415dd03c2e7',
        hash: 'ec9c20c2c5cd5aa4c9261a9f97e68734b175962c4b3d9edc996dd415dd03c2e7',
        version: 2,
        size: 1405,
        locktime: 0,
        vin: [
            {
                txid: '3507d73b0bb82421d64ae79f469943e56f15d7db954ad235f48ede33c718d860',
                vout: 0,
                scriptSig: {
                    asm: '3044022000cc5b79e5da60cf4935f3a172089cd9b631b678462ee29091dc610816d059c4022002e3b6f32e825ac04d2907453d6d647a32a995c798df1c68401cc461f6bfbd3a[ALL|FORKID] 0352cbc218d193ceaf4fb38a772856380173db7a908905e3190841b3174c7ae22d',
                    hex: '473044022000cc5b79e5da60cf4935f3a172089cd9b631b678462ee29091dc610816d059c4022002e3b6f32e825ac04d2907453d6d647a32a995c798df1c68401cc461f6bfbd3a41210352cbc218d193ceaf4fb38a772856380173db7a908905e3190841b3174c7ae22d',
                },
                sequence: 4294967295,
                address:
                    'bitcoincash:qphpmfj0qn7znklqhrfn5dq7qh36l3vxavu346vqcl',
            },
            {
                txid: '8f73a718d907d94e60c5f73f299bd01dc5b1c163c4ebc26b5304e37a1a7f34af',
                vout: 0,
                scriptSig: {
                    asm: '3045022100ac50553448f2a5fab1177ed0bc64541b2dba063d04f2d69a8a1d216fb1435e5802202c7f6abd1685a6d81f14ac3bdb0874d214a5f4260719f9c5dc519ac5d8dffd37[ALL|FORKID] 0352cbc218d193ceaf4fb38a772856380173db7a908905e3190841b3174c7ae22d',
                    hex: '483045022100ac50553448f2a5fab1177ed0bc64541b2dba063d04f2d69a8a1d216fb1435e5802202c7f6abd1685a6d81f14ac3bdb0874d214a5f4260719f9c5dc519ac5d8dffd3741210352cbc218d193ceaf4fb38a772856380173db7a908905e3190841b3174c7ae22d',
                },
                sequence: 4294967295,
                address:
                    'bitcoincash:qphpmfj0qn7znklqhrfn5dq7qh36l3vxavu346vqcl',
            },
            {
                txid: 'd38b76bacd6aa75ad2d6fcfd994533e54d0541435970eace49486fde9d6ee2e3',
                vout: 0,
                scriptSig: {
                    asm: '304502210091836c6cb4c786bd3b74b73e579ddf8b843ba51841e5675fa53608449b67371802203de75f32b684cfe2d2e9cd424ea6eb4f49248e6698365c9364ebf84cd6e50eab[ALL|FORKID] 0352cbc218d193ceaf4fb38a772856380173db7a908905e3190841b3174c7ae22d',
                    hex: '48304502210091836c6cb4c786bd3b74b73e579ddf8b843ba51841e5675fa53608449b67371802203de75f32b684cfe2d2e9cd424ea6eb4f49248e6698365c9364ebf84cd6e50eab41210352cbc218d193ceaf4fb38a772856380173db7a908905e3190841b3174c7ae22d',
                },
                sequence: 4294967295,
                address:
                    'bitcoincash:qphpmfj0qn7znklqhrfn5dq7qh36l3vxavu346vqcl',
            },
            {
                txid: 'd47607a72d6bc093556fa7f2cec9d67719bd627751d5d27bc53c4eb8eb6f54e5',
                vout: 0,
                scriptSig: {
                    asm: '3045022100e7727d9d26c645282553aef27947ad6795bc89b505ad089d617b6f696399352802206c736524a1410ed3e30cf1127f7f02c9a249392f8f8e7c670250472909d1c0d6[ALL|FORKID] 0352cbc218d193ceaf4fb38a772856380173db7a908905e3190841b3174c7ae22d',
                    hex: '483045022100e7727d9d26c645282553aef27947ad6795bc89b505ad089d617b6f696399352802206c736524a1410ed3e30cf1127f7f02c9a249392f8f8e7c670250472909d1c0d641210352cbc218d193ceaf4fb38a772856380173db7a908905e3190841b3174c7ae22d',
                },
                sequence: 4294967295,
                address:
                    'bitcoincash:qphpmfj0qn7znklqhrfn5dq7qh36l3vxavu346vqcl',
            },
            {
                txid: '33f246811f794c4b64098a64c698ae5811054b13e289256a18e2d142beef57e7',
                vout: 1,
                scriptSig: {
                    asm: '304402203fe78ad5aaeefab7b3b2277eefc4a2ace9c2e92694b46bf4a76927bf2b82017102200ded59336aba269a54865d9fdd99e72081c0318ccbc37bc0fc0c72b60ae35382[ALL|FORKID] 0352cbc218d193ceaf4fb38a772856380173db7a908905e3190841b3174c7ae22d',
                    hex: '47304402203fe78ad5aaeefab7b3b2277eefc4a2ace9c2e92694b46bf4a76927bf2b82017102200ded59336aba269a54865d9fdd99e72081c0318ccbc37bc0fc0c72b60ae3538241210352cbc218d193ceaf4fb38a772856380173db7a908905e3190841b3174c7ae22d',
                },
                sequence: 4294967295,
                address:
                    'bitcoincash:qphpmfj0qn7znklqhrfn5dq7qh36l3vxavu346vqcl',
            },
            {
                txid: '25f915d2912524ad602c882211ccaf479d6bf87ef7c24d1be0f325cec3727257',
                vout: 0,
                scriptSig: {
                    asm: '30440220670af03605b9495c8ecee357889ceeb137dadaa1662136fdc55c28fe9434e3c60220285195a62811941745a9f93e136e59c96b81d5b0d9525f3d16d001bc0f6fa9bb[ALL|FORKID] 0352cbc218d193ceaf4fb38a772856380173db7a908905e3190841b3174c7ae22d',
                    hex: '4730440220670af03605b9495c8ecee357889ceeb137dadaa1662136fdc55c28fe9434e3c60220285195a62811941745a9f93e136e59c96b81d5b0d9525f3d16d001bc0f6fa9bb41210352cbc218d193ceaf4fb38a772856380173db7a908905e3190841b3174c7ae22d',
                },
                sequence: 4294967295,
                address:
                    'bitcoincash:qphpmfj0qn7znklqhrfn5dq7qh36l3vxavu346vqcl',
            },
            {
                txid: 'c9044b4d7438d006a722ef85474c8127265eced4f72c7d71c2f714444bc0e1f2',
                vout: 0,
                scriptSig: {
                    asm: '304402203f822a0b207ed49e6918663133a18037c24498c2f770c2649333a32f523e259d02203afc42a79d0da123b67f814effeee7c05c7996ea829b3cfa46c5c2e74209c096[ALL|FORKID] 0352cbc218d193ceaf4fb38a772856380173db7a908905e3190841b3174c7ae22d',
                    hex: '47304402203f822a0b207ed49e6918663133a18037c24498c2f770c2649333a32f523e259d02203afc42a79d0da123b67f814effeee7c05c7996ea829b3cfa46c5c2e74209c09641210352cbc218d193ceaf4fb38a772856380173db7a908905e3190841b3174c7ae22d',
                },
                sequence: 4294967295,
                address:
                    'bitcoincash:qphpmfj0qn7znklqhrfn5dq7qh36l3vxavu346vqcl',
            },
            {
                txid: '045306f0019ae0d977de7ff17dd55e861b3fe94458693ee2b94ce5dd7003aab9',
                vout: 0,
                scriptSig: {
                    asm: '3045022100a7a2cf838a13a19f0e443ca35ac5ee3d55f70edca992f98402a84d4ab5ae1ad90220644a02c746eae7b44a4600199ecbf69f3b0f0bdf8479f461c482d67ef4a84e76[ALL|FORKID] 0352cbc218d193ceaf4fb38a772856380173db7a908905e3190841b3174c7ae22d',
                    hex: '483045022100a7a2cf838a13a19f0e443ca35ac5ee3d55f70edca992f98402a84d4ab5ae1ad90220644a02c746eae7b44a4600199ecbf69f3b0f0bdf8479f461c482d67ef4a84e7641210352cbc218d193ceaf4fb38a772856380173db7a908905e3190841b3174c7ae22d',
                },
                sequence: 4294967295,
                address:
                    'bitcoincash:qphpmfj0qn7znklqhrfn5dq7qh36l3vxavu346vqcl',
            },
            {
                txid: '1452267e57429edcfdcb1184b24becea6ddf8f8a4f8e130dad6248545d9f8e75',
                vout: 0,
                scriptSig: {
                    asm: '30440220290701c797eb52ad6721db615c7d6f623c0200be0e6d6802df68c527655475450220446c4a4da9a0df5efcb57711ad61cf6167dfdda937bd0477189be8afedaedd05[ALL|FORKID] 0352cbc218d193ceaf4fb38a772856380173db7a908905e3190841b3174c7ae22d',
                    hex: '4730440220290701c797eb52ad6721db615c7d6f623c0200be0e6d6802df68c527655475450220446c4a4da9a0df5efcb57711ad61cf6167dfdda937bd0477189be8afedaedd0541210352cbc218d193ceaf4fb38a772856380173db7a908905e3190841b3174c7ae22d',
                },
                sequence: 4294967295,
                address:
                    'bitcoincash:qphpmfj0qn7znklqhrfn5dq7qh36l3vxavu346vqcl',
            },
        ],
        vout: [
            {
                value: 5.00001874,
                n: 0,
                scriptPubKey: {
                    asm: 'OP_DUP OP_HASH160 76458db0ed96fe9863fc1ccec9fa2cfab884b0f6 OP_EQUALVERIFY OP_CHECKSIG',
                    hex: '76a91476458db0ed96fe9863fc1ccec9fa2cfab884b0f688ac',
                    reqSigs: 1,
                    type: 'pubkeyhash',
                    addresses: [
                        'bitcoincash:qpmytrdsakt0axrrlswvaj069nat3p9s7ct4lsf8k9',
                    ],
                },
            },
            {
                value: 7.52551634,
                n: 1,
                scriptPubKey: {
                    asm: 'OP_DUP OP_HASH160 6e1da64f04fc29dbe0b8d33a341e05e3afc586eb OP_EQUALVERIFY OP_CHECKSIG',
                    hex: '76a9146e1da64f04fc29dbe0b8d33a341e05e3afc586eb88ac',
                    reqSigs: 1,
                    type: 'pubkeyhash',
                    addresses: [
                        'bitcoincash:qphpmfj0qn7znklqhrfn5dq7qh36l3vxavu346vqcl',
                    ],
                },
            },
        ],
        hex: '020000000960d818c733de8ef435d24a95dbd7156fe54399469fe74ad62124b80b3bd70735000000006a473044022000cc5b79e5da60cf4935f3a172089cd9b631b678462ee29091dc610816d059c4022002e3b6f32e825ac04d2907453d6d647a32a995c798df1c68401cc461f6bfbd3a41210352cbc218d193ceaf4fb38a772856380173db7a908905e3190841b3174c7ae22dffffffffaf347f1a7ae304536bc2ebc463c1b1c51dd09b293ff7c5604ed907d918a7738f000000006b483045022100ac50553448f2a5fab1177ed0bc64541b2dba063d04f2d69a8a1d216fb1435e5802202c7f6abd1685a6d81f14ac3bdb0874d214a5f4260719f9c5dc519ac5d8dffd3741210352cbc218d193ceaf4fb38a772856380173db7a908905e3190841b3174c7ae22dffffffffe3e26e9dde6f4849ceea70594341054de5334599fdfcd6d25aa76acdba768bd3000000006b48304502210091836c6cb4c786bd3b74b73e579ddf8b843ba51841e5675fa53608449b67371802203de75f32b684cfe2d2e9cd424ea6eb4f49248e6698365c9364ebf84cd6e50eab41210352cbc218d193ceaf4fb38a772856380173db7a908905e3190841b3174c7ae22dffffffffe5546febb84e3cc57bd2d5517762bd1977d6c9cef2a76f5593c06b2da70776d4000000006b483045022100e7727d9d26c645282553aef27947ad6795bc89b505ad089d617b6f696399352802206c736524a1410ed3e30cf1127f7f02c9a249392f8f8e7c670250472909d1c0d641210352cbc218d193ceaf4fb38a772856380173db7a908905e3190841b3174c7ae22dffffffffe757efbe42d1e2186a2589e2134b051158ae98c6648a09644b4c791f8146f233010000006a47304402203fe78ad5aaeefab7b3b2277eefc4a2ace9c2e92694b46bf4a76927bf2b82017102200ded59336aba269a54865d9fdd99e72081c0318ccbc37bc0fc0c72b60ae3538241210352cbc218d193ceaf4fb38a772856380173db7a908905e3190841b3174c7ae22dffffffff577272c3ce25f3e01b4dc2f77ef86b9d47afcc1122882c60ad242591d215f925000000006a4730440220670af03605b9495c8ecee357889ceeb137dadaa1662136fdc55c28fe9434e3c60220285195a62811941745a9f93e136e59c96b81d5b0d9525f3d16d001bc0f6fa9bb41210352cbc218d193ceaf4fb38a772856380173db7a908905e3190841b3174c7ae22dfffffffff2e1c04b4414f7c2717d2cf7d4ce5e2627814c4785ef22a706d038744d4b04c9000000006a47304402203f822a0b207ed49e6918663133a18037c24498c2f770c2649333a32f523e259d02203afc42a79d0da123b67f814effeee7c05c7996ea829b3cfa46c5c2e74209c09641210352cbc218d193ceaf4fb38a772856380173db7a908905e3190841b3174c7ae22dffffffffb9aa0370dde54cb9e23e695844e93f1b865ed57df17fde77d9e09a01f0065304000000006b483045022100a7a2cf838a13a19f0e443ca35ac5ee3d55f70edca992f98402a84d4ab5ae1ad90220644a02c746eae7b44a4600199ecbf69f3b0f0bdf8479f461c482d67ef4a84e7641210352cbc218d193ceaf4fb38a772856380173db7a908905e3190841b3174c7ae22dffffffff758e9f5d544862ad0d138e4f8a8fdf6deaec4bb28411cbfddc9e42577e265214000000006a4730440220290701c797eb52ad6721db615c7d6f623c0200be0e6d6802df68c527655475450220446c4a4da9a0df5efcb57711ad61cf6167dfdda937bd0477189be8afedaedd0541210352cbc218d193ceaf4fb38a772856380173db7a908905e3190841b3174c7ae22dffffffff02526ccd1d000000001976a91476458db0ed96fe9863fc1ccec9fa2cfab884b0f688acd206db2c000000001976a9146e1da64f04fc29dbe0b8d33a341e05e3afc586eb88ac00000000',
        blockhash:
            '00000000000000008f563edf8604e537fe0d1e80f1c7c2d97dd094824f804ba3',
        confirmations: 5637,
        time: 1612567121,
        blocktime: 1612567121,
        height: 672077,
        address: 'bitcoincash:qpmytrdsakt0axrrlswvaj069nat3p9s7ct4lsf8k9',
    },
    {
      "hash": "4f8f6f9361b29cf7f9f2770e64a019570100669ce8fca865852e9182433ad414",
      "fee": 657,
      "rate": 3099,
      "mtime": 1639702251,
      "height": -1,
      "block": null,
      "time": 0,
      "index": -1,
      "version": 1,
      "inputs": [
        {
          "prevout": {
            "hash": "65dd5cbbad1f87154a500b7d1ce476af89bf6f351749e8f7181873c35900363d",
            "index": 2
          },
          "script": "41ec464e163432bcc82ed8dbcbaeb02301156774bb43446d3570836b3c200cb23ffee3cd6c3983e602eed1d98b3eae0d6842cd7ad33fbba97bdd44d9fb5f246bbf412102a06bb380cf180d703f6f80796a13555aefff817d1f6f842f1e5c555b15f0fa70",
          "sequence": 4294967294,
          "coin": {
            "version": 1,
            "height": 718098,
            "value": 1203,
            "script": "76a914ba8257db65f40359989c7b894c5e88ed7b6344f688ac",
            "address": "ecash:qzagy47mvh6qxkvcn3acjnz73rkhkc6y7ccxkrr6zd",
            "coinbase": false
          }
        }
      ],
      "outputs": [
        {
          "value": 0,
          "script": "6a04007461620b63617368746162756c6172",
          "address": null
        },
        {
          "value": 546,
          "script": "76a914188bd4db6985c18ea2b4cb6cd581306f22d16f4488ac",
          "address": "ecash:qqvgh4xmdxzurr4zkn9ke4vpxphj95t0gsgsc0dyaz"
        }
      ],
      "locktime": 718098,
      "hex": "01000000013d360059c3731818f7e84917356fbf89af76e41c7d0b504a15871fadbb5cdd65020000006441ec464e163432bcc82ed8dbcbaeb02301156774bb43446d3570836b3c200cb23ffee3cd6c3983e602eed1d98b3eae0d6842cd7ad33fbba97bdd44d9fb5f246bbf412102a06bb380cf180d703f6f80796a13555aefff817d1f6f842f1e5c555b15f0fa70feffffff020000000000000000126a04007461620b63617368746162756c617222020000000000001976a914188bd4db6985c18ea2b4cb6cd581306f22d16f4488ac12f50a00",
      "confirmations": 0
    },
    {
      "hash": "df9865b5da263a9930e915dda09a4b0638007533ee483a35535bce970795655d",
      "fee": 250,
      "rate": 1000,
      "mtime": 1639701015,
      "height": -1,
      "block": null,
      "time": 0,
      "index": -1,
      "version": 1,
      "inputs": [
        {
          "prevout": {
            "hash": "c7c6d8867ab3756538e2279a343bf4da375c499e95a363c8c8235b7ce2ffb8b1",
            "index": 1
          },
          "script": "483045022100df3b658bbe463073967c267bc8572cabdf3c2186f1062be3ff89d97a302837510220232fc6c8879be6f36ed6858f894bccd0d82823eab3aca0c1078440920a029f3e412103c567941b267f18b3e2640ff572732717e7e79b14116409b3d8e9a3bf54c2df8c",
          "sequence": 4294967294,
          "coin": {
            "version": 1,
            "height": 717866,
            "value": 31895300,
            "script": "76a914a4957f79487add3fa6fde3b2410b191cf4b94cbb88ac",
            "address": "ecash:qzjf2lmefpad60axlh3mysgtryw0fw2vhvafhgzysd",
            "coinbase": false
          }
        }
      ],
      "outputs": [
        {
          "value": 0,
          "script": "6a0d62696e676f656c65637472756d",
          "address": null
        },
        {
          "value": 2000,
          "script": "76a914ba8257db65f40359989c7b894c5e88ed7b6344f688ac",
          "address": "ecash:qzagy47mvh6qxkvcn3acjnz73rkhkc6y7ccxkrr6zd"
        },
        {
          "value": 31893050,
          "script": "76a914b7a08786bd69740330fbdfae83b42e64087bdaf188ac",
          "address": "ecash:qzm6ppuxh45hgqesl006aqa59ejqs7767yhpguxkph"
        }
      ],
      "locktime": 718097,
      "hex": "0100000001b1b8ffe27c5b23c8c863a3959e495c37daf43b349a27e2386575b37a86d8c6c7010000006b483045022100df3b658bbe463073967c267bc8572cabdf3c2186f1062be3ff89d97a302837510220232fc6c8879be6f36ed6858f894bccd0d82823eab3aca0c1078440920a029f3e412103c567941b267f18b3e2640ff572732717e7e79b14116409b3d8e9a3bf54c2df8cfeffffff0300000000000000000f6a0d62696e676f656c65637472756dd0070000000000001976a914ba8257db65f40359989c7b894c5e88ed7b6344f688ac3aa6e601000000001976a914b7a08786bd69740330fbdfae83b42e64087bdaf188ac11f50a00",
      "confirmations": 0
    },
    {
      "hash": "7628ef0325f84a4de1d745fd934b6fd7c620dbb481062df2b2f0f8f316e73577",
      "fee": 654,
      "rate": 2525,
      "mtime": 1639704185,
      "height": -1,
      "block": null,
      "time": 0,
      "index": -1,
      "version": 1,
      "inputs": [
        {
          "prevout": {
            "hash": "a2e68c9ca6ff4e9161b997dfbf9e58c9c97d3f6430b2a39db0e858c893a0b043",
            "index": 0
          },
          "script": "4130a5911dbaa5ca94dddb84b855c5c7e2acc6eb8032f69ea6e389ea8e6e1291a8e5751d69526d2c7566c110e5d42d5b371c6be86ca7a67058707f2e994071f0f8412102a06bb380cf180d703f6f80796a13555aefff817d1f6f842f1e5c555b15f0fa70",
          "sequence": 4294967294,
          "coin": {
            "version": 1,
            "height": -1,
            "value": 1200,
            "script": "76a914ba8257db65f40359989c7b894c5e88ed7b6344f688ac",
            "address": "ecash:qzagy47mvh6qxkvcn3acjnz73rkhkc6y7ccxkrr6zd",
            "coinbase": false
          }
        }
      ],
      "outputs": [
        {
          "value": 0,
          "script": "6a04534c500001010747454e45534953035442430954616262792043617413687474703a2f2f63617466616e63792e636f6d4c0001064c000800000000000003e7",
          "address": null
        },
        {
          "value": 546,
          "script": "76a914ba8257db65f40359989c7b894c5e88ed7b6344f688ac",
          "address": "ecash:qzagy47mvh6qxkvcn3acjnz73rkhkc6y7ccxkrr6zd",
          "slp": {
            "hash": "7628ef0325f84a4de1d745fd934b6fd7c620dbb481062df2b2f0f8f316e73577",
            "vout": 1,
            "tokenId": "7628ef0325f84a4de1d745fd934b6fd7c620dbb481062df2b2f0f8f316e73577",
            "value": "999",
            "type": "GENESIS"
          }
        }
      ],
      "locktime": 718100,
      "hex": "010000000143b0a093c858e8b09da3b230643f7dc9c9589ebfdf97b961914effa69c8ce6a200000000644130a5911dbaa5ca94dddb84b855c5c7e2acc6eb8032f69ea6e389ea8e6e1291a8e5751d69526d2c7566c110e5d42d5b371c6be86ca7a67058707f2e994071f0f8412102a06bb380cf180d703f6f80796a13555aefff817d1f6f842f1e5c555b15f0fa70feffffff020000000000000000416a04534c500001010747454e45534953035442430954616262792043617413687474703a2f2f63617466616e63792e636f6d4c0001064c000800000000000003e722020000000000001976a914ba8257db65f40359989c7b894c5e88ed7b6344f688ac14f50a00",
      "slpToken": {
        "tokenId": "7628ef0325f84a4de1d745fd934b6fd7c620dbb481062df2b2f0f8f316e73577",
        "ticker": "TBC",
        "name": "Tabby Cat",
        "uri": "http://catfancy.com",
        "hash": "",
        "decimals": 6
      },
      "confirmations": 0
    }
];
